:03000000020003F8
:0C000300787FE4F6D8FD75810902004A00
:04021F0002080000D1
:0701F9001201B77FE87E034D
:10020000EF1FAA0670011E4A600BE4FDEDC394784F
:0502100050EE0D80F727
:0102150022C6
:10019600D280C281D282C283D284C285D286C287ED
:1001A600D290C291D292C293D294C295D296C2975D
:0101B6002226
:1001B700C280C281C282C283C284C285C286C2870C
:1001C700C290C291C292C293C294C295C296C2977C
:0101D7002205
:1001D800D280D281D282D283D284D285D286D2876B
:1001E800D290D291D292D293D294D295D296D297DB
:0101F80022E4
:0902160030A403C2A422D2A422E8
:04011A00AB07AA067F
:10011E007C007D0812008FEE4F24FF92A3EB24F893
:10012E00FFEA34FFAB07FA7C007D04FE12008FEE6F
:10013E004F24FF92A2EB24FCFFEA34FFAB07FA7CBC
:10014E00007D02FE12008FEE4F24FF92A1EB24FEE3
:09015E00FFEA34FF4F24FF92A0D8
:010167002275
:100168001201F9C2A4120196D2B7AF09AE08120162
:100178001A0509E50970020508C2B7640F45087039
:0E018800E71201F9120196E4F508F50980DA94
:10000F00020168E493A3F8E493A34003F68001F29E
:10001F0008DFF48029E493A3F85407240CC8C333F2
:10002F00C4540F4420C8834004F456800146F6DFC1
:10003F00E4800B010204081020408090021FE47E30
:10004F00019360BCA3FF543F30E509541FFEE493B6
:10005F00A360010ECF54C025E060A840B8E493A37D
:10006F00FAE493A3F8E493A3C8C582C8CAC583CAA8
:10007F00F0A3C8C582C8CAC583CADFE9DEE780BE60
:0102230000DA
:10008F00C2D5EC30E709B2D5E4C39DFDE49CFCEE8C
:10009F0030E715B2D5E4C39FFFE49EFE1200C5C33F
:1000AF00E49DFDE49CFC80031200C530D507C3E43A
:0600BF009FFFE49EFE22FB
:1000C500BC000BBE0029EF8DF084FFADF022E4CC1F
:1000D500F875F008EF2FFFEE33FEEC33FCEE9DECE8
:1000E500984005FCEE9DFE0FD5F0E9E4CEFD22ED2E
:1000F500F8F5F0EE8420D21CFEADF075F008EF2F78
:10010500FFED33FD4007985006D5F0F222C398FD68
:050115000FD5F0EA2205
:00000001FF
